:020000040800F2
:10000000C814002059220008612200086322000859
:10001000652200086722000869220008000000002D
:100020000000000000000000000000006B2200083B
:100030006D220008000000006F220008210D00085A
:10004000732200087322000873220008732200083C
:10005000732200087322000873220008732200082C
:10006000732200087322000873220008732200081C
:10007000732200087322000873220008732200080C
:10008000732200087322000873220008290D00085B
:100090002B0D000873220008732200087322000849
:1000A00073220008732200087322000873220008DC
:1000B00073220008732200087322000873220008CC
:1000C00073220008732200087322000873220008BC
:1000D00073220008190D000873220008732200081B
:1000E000732200087322000873220008DFF80CD086
:1000F00005F0EEFD0048004701010008C81400208B
:100100004FF4407002F07CFB01F042FF00F012FE61
:1001100000F03AFE00F0ACFD204800684FF47A721F
:10012000B0FBF2F1B1F1807F00D31DE021F07F4000
:10013000401E4FF0E022506150170F22002807DACE
:1001400013071D0E164B00F00F04241F1D5503E06E
:1001500013071C0E134B1C5400BF00204FF0E0226D
:1001600090610720106100BF00F066FF00F008FFFB
:100170000D4908700846007818B15021032000F09E
:1001800090FE01F0F7F900F0F1FA01F0B2FC00F096
:100190003EFD01E000F025F8FCE70000A409002086
:1001A00018ED00E000E400E00000002010B500F0D1
:1001B00006FF01F014FF10BD70477047704710B57F
:1001C00000F0EDFA00F034FC10BD10B500F027FA95
:1001D00010BD2D4800782D49087000202A4908706C
:1001E000704710B52A48007801280BD129480078BB
:1001F000212804DA27480178401C00F049FE00203D
:100200002349087024480088012804DBFFF7CEFF4B
:1002100000202149088021480088022804DBFFF7DC
:10022000CBFF00201D4908801D480088052804DBFD
:10023000FFF7C3FF00201A4908801A4800880A28DF
:1002400004DBFFF7BBFF0020164908801648008832
:10025000142804DBFFF7B3FF00201349088013487C
:1002600000881E2804DBFFF7B0FF00200F4908803C
:100270000F480088B0F57A7F04DBFFF7AAFF002063
:100280000B49088010BD00005700002056000020D8
:10029000020A00202A0F0020020000200400002093
:1002A00006000020080000200A0000200C000020AA
:1002B0000E00002008B5F8480078401CF649087088
:1002C00008460078042801D100200870F248007820
:1002D00030B1012820D002284FD003281BD152E092
:1002E00000221146104601F0B6FC0623EBA20021C5
:1002F0004B2001F04BFBEB48007830B10623EAA21B
:1003000001214B2001F042FB05E00623E8A2012178
:100310004B2001F03BFB63E00623E7A20221002013
:1003200001F034FB062004230090E84802880221F3
:100330001D2001F039FA062004230090E4480288C9
:1003400002215F2001F030FA0623E2A203210020FF
:1003500001F01CFB062004230090E34802880321DF
:100360001D2001F021FA062004230090DF480288B6
:1003700003215F2001F018FA32E00022022110462A
:1003800001F094FC2CE00623CBA21946002001F0DA
:10039000FDFA0623D648B0F9002019461D2001F0C9
:1003A00040FA0623D348B0F9002019465F2001F037
:1003B00038FA0623D0A20721002001F0E7FA06232D
:1003C000D248B0F9002007211D2001F02AFA0620AA
:1003D00004230022072100905F2001F0E5F900BF0F
:1003E00000BF08BD08B5CA480078401CC84908705D
:1003F00008460078042801D100200870C54800781C
:10040000012806D1C4480078401CC349087001F097
:1004100053F90020BF490870BF480078022809D16D
:100420000020BE490870BC490870BD49087000F042
:10043000D9FB08BDB848007800285DD10120B84933
:100440000870B348007830B1012817D0022846D090
:10045000032850D149E000221146104601F05AFC11
:10046000002211464F2001F076FD082001231A4694
:10047000002100906F2001F097F93CE006238EA246
:100480000221002001F082FA0620042300908F4808
:10049000028802211D2001F087F906200423009024
:1004A0008B48028802215F2001F07EF9062389A291
:1004B0000321002001F06AFA0620042300908A48F4
:1004C000028803211D2001F06FF90620042300900B
:1004D0008648028803215F2001F066F90BE00022C4
:1004E0000221104601F06CFC05E0002203211046B9
:1004F00001F091FC00BF62E08748007801285ED1DE
:100500000220874908708248007830B1012817D04E
:10051000022846D0032851D149E000221146104656
:1005200001F0F8FB002211464F2001F014FD0820D5
:1005300001230222002100906F2001F035F93DE0F7
:1005400006235DA20221002001F020FA06200423E8
:1005500000905E48028802211D2001F025F9062046
:10056000042300905A48028802215F2001F01CF900
:10057000062358A20321002001F008FA06200423D4
:1005800000905948028803211D2001F00DF9062032
:10059000042300905548028803215F2001F004F9EC
:1005A0000CE000220221104601F072FC06E0082354
:1005B0005CA20621002001F0E9F900BF00BF00BFE6
:1005C00037E710B55B480078401C5A490870084668
:1005D0000078042801D1002008704E4800780128D6
:1005E00004D101F069F800204C4908700020494905
:1005F00008705048007830B101280AD0022809D08C
:10060000032809D107E000221146104601F0ADFB96
:1006100003E002E001E000E000BF00BF10BD10B544
:100620003E480078002835D13A4800780B2808D198
:1006300002203A49087001F03FF80020354908705F
:100640008EE034480078012807D13449087001F061
:1006500033F800202F49087082E02E4800780C28DB
:100660000BD100202B4908700E48007808B90120F2
:1006700000E000200B49087072E02648007802284C
:100680005ED10020234908700648007808B901208F
:1006900053E051E057E000001100002041524D4569
:1006A00044000000160000204D3A202041636B00FA
:1006B0004D3A537469636B00524F4C3A202020200E
:1006C0002020205049543A20202020001C000020E7
:1006D0001E0000205448523A20202020202020597B
:1006E00041573A20202020001A0000201800002046
:1006F00040000020420000205941573A202020208D
:10070000202020414C543A20202020003E00002090
:1007100012000020280000201300002010000020FC
:1007200017000020505245535320425554544F4E09
:10073000310000001400002000200A4908700FE07A
:10074000FFF7B8FD0CE008480078012802D1FFF758
:1007500038FF05E004480078022801D1FFF742FE87
:1007600010BD0000160000201000002000209B4952
:1007700008804FF4006048800020994908804FF4B9
:10078000006048800020974908804FF4006048804E
:100790000020954908804FF40060488070479348D6
:1007A0000078002858D1924800888D490988401A5D
:1007B0004FF47A7148438A494988894A1288891ACC
:1007C00090FBF1F000F57A708A49098808448A495B
:1007D00008808248008886494988401A4FF47A7117
:1007E00048437E4949887D4A1288891A90FBF1F076
:1007F00000F5FA60814909880844814908807C48ED
:10080000808879490988401A4FF47A7148437649BB
:100810004988754A1288891A90FBF1F000F57A70C0
:10082000784909880844784908806E4800887049EA
:10083000C988401A4FF47A7148436A494988694A1D
:100840001288891A90FBF1F000F5FA606F49098867
:1008500008446F4908804BE0654800886049098872
:10086000401A4FF47A7148435D4949885C4A1288BE
:10087000891A90FBF1F000F57A705F4908805748BB
:1008800000885B494988401A4FF47A7148435349BC
:100890004988524A1288891A90FBF1F000F5FA60F3
:1008A00057490880524880884F490988401A4FF4B8
:1008B0007A7148434C4949884B4A1288891A90FBFF
:1008C000F1F000F57A7050490880464800884849A0
:1008D000C988401A4FF47A71484342494988414ACD
:1008E0001288891A90FBF1F000F5FA6048490880F7
:1008F0003E480078012808D100203E4908803F4941
:10090000088040490880414908803848007802281A
:100910001AD10020374908803948008840F2DC515C
:10092000081A00B2354908803748008840F2DC5187
:10093000081A00B2334908803548008840F2DC517B
:10094000081A00B2314908802948408940F6D86128
:10095000884223DD2F48007801280AD12E480088DC
:100960003C2803DD0B202D49087002E001202B49B3
:1009700008702848007802280AD1274800883C28B7
:1009800003DD0C202549087002E00220234908708D
:10099000002020490870204908801DE01448408943
:1009A000B0F5E16F0CDD02201A4908701A48008882
:1009B000FA2811DA18480088401C174908800BE013
:1009C00001201449087014480088FA2804DA1248F3
:1009D0000088401C10490880704700002A00002051
:1009E0002E000020320000203600002017000020DA
:1009F0001E0F0020220000201A00002020000020EE
:100A000018000020260000201E00002024000020E6
:100A10001C0000203C0000203A000020280000209C
:100A200070B504460D462946204600F031FA70BDE7
:100A300070B50024AA222146641C5B484254AF22B0
:100A40002146641C425403222146641C4254002265
:100A50002146641C4254554842782146641C524841
:100A60004254524802782146641C4F484254504830
:100A700042782146641C4C4842544D480278204636
:100A8000611CCCB248490A544A4842782046611C4D
:100A9000CCB245490A54474802782046611CCCB282
:100AA00041490A54444842782046611CCCB23E4930
:100AB0000A54414802782046611CCCB23A490A5493
:100AC00000222046611CCCB237490A542046611CE2
:100AD000CCB235490A542046611CCCB232490A5482
:100AE0002046611CCCB230490A542046611CCCB26D
:100AF0002D490A542046611CCCB22B490A54204689
:100B0000611CCCB228490A542046611CCCB226494B
:100B10000A54201FC8700025002005E02249095C06
:100B20002944CDB2411CC8B2A042F7DB2046611C6B
:100B3000CCB21D490D5421461B48FFF771FF70BD13
:100B400010B50023002204E0845C1C44E3B2541C72
:100B5000E2B24C1E9442F7DC421812F8012C9A4281
:100B600000D010BD0278AA2A02D14278AA2A00D069
:100B7000F7E78278012A14D10279120212B244797D
:100B800022430E4C22808279120212B2C47922438F
:100B90000B4C2280027A120212B2447A2243094C90
:100BA000228000BFDDE70000E40A00201A000020D8
:100BB000180000201C0000201E0000204000002023
:100BC000420000203E00002010B544202349088048
:100BD0000020488088800881C8800A211F4801F0D1
:100BE00006FB10BD10B544201C4908801C48008835
:100BF00048801C48008888801B48008808811B4862
:100C00000088C8800A21154801F0F1FA10BD10B51E
:100C10000A21124801F0CCFA10480088442801D07B
:100C2000FFF7D2FF0D480088442801D000BFFEE73F
:100C30000A48408800B20A4908800848808800B203
:100C4000084908800548008900B207490880034820
:100C5000C08800B20549088010BD0000160B0020B6
:100C60002400002026000020200000202200002078
:100C700000B585B0684601F0F2FC1D490098B0FB54
:100C8000F1F01C49086005B000BD01B502E0009814
:100C9000401E009000980028F9D108BD1648006851
:100CA000401C1549086015480088401C13490880FD
:100CB00013480088401C1249088012480088401CD4
:100CC0001049088010480088401C0F4908800F48D0
:100CD0000088401C0D4908800D480088401C0C49C4
:100CE00008800C480088401C0A49088070470000B2
:100CF00040420F0044000020480000200200002075
:100D00000400002006000020080000200A00002047
:100D10000C0000200E00002010B500F087FA10BD76
:100D200010B5FFF7BBFF10BD704710B504F088FD8C
:100D300010BD000008B50121084601F0FDFC0121AD
:100D4000204802F0DAF90121082001F0F5FC10201A
:100D50008DF8030003208DF802004FF48070ADF889
:100D600000006946184802F0F7F808BD10B54FF4C6
:100D70008071154802F09FF910BD10B54FF48071D5
:100D8000114802F096F910BD10B5FFF7EFFF0F48BC
:100D9000FFF77BFFFFF7F1FF0C48FFF776FFFFF748
:100DA000E5FF0A48FFF771FFFFF7E7FF0748FFF786
:100DB0006CFFFFF7DBFF0548FFF767FFFFF7DDFF7D
:100DC00010BD000000023000000C0140E093040060
:100DD00070B505460C4600F09FF9284600F07CF9F6
:100DE0000646204600F078F900F08FF9304670BDD5
:100DF00070B5044600F090F9204600F06DF900202F
:100E000000F06AF9054600F080F9284670BD2DE92A
:100E1000F04107460D46164600F07EF9384600F0D0
:100E20005BF98046002404E0285D00F055F9601C61
:100E3000C4B2B442F8DB00F068F94046BDE8F08186
:100E40002DE9F04107460D46164600F065F9384693
:100E500000F042F98046002405E0002000F03CF953
:100E60002855601CC4B2B442F7DB00F04EF940468E
:100E7000BDE8F08170B504460D4605226A492A2076
:100E8000FFF7C5FF2A462146A020FFF7C0FF70BD2F
:100E900070B504460D462A462146A820FFF7B7FF45
:100EA00070BD70B504460D46052260492A20FFF743
:100EB000AEFF05225C493020FFF7A9FF0121212068
:100EC000FFF786FF01212220FFF782FF1A2124204D
:100ED000FFF77EFF29462520FFF77AFF0F21262006
:100EE000FFF776FF012C08D1FF213120FFF770FFBB
:100EF0000F212020FFF76CFF41E0022C08D1FF21D9
:100F00003120FFF765FF0E212020FFF761FF36E05B
:100F1000032C1AD1FF21E120FFF75AFFFF21E22025
:100F2000FFF756FF0F212020FFF752FF502000F05F
:100F3000D3F8732000F0D0F801213C20FFF748FFE0
:100F400006213D20FFF744FF19E00E212020FFF786
:100F50003FFFFF21E120FFF73BFFFF21E220FFF7EA
:100F600037FF502000F0B8F8732000F0B5F80121E9
:100F70003C20FFF72DFF06213D20FFF729FF70BD24
:100F80001CB5052228493020FFF741FF052269469C
:100F90001020FFF755FF002408E01DF80400224947
:100FA000095D884200D003E0601CC4B2052CF4DB6C
:100FB00000BF052C01D101201CBD0020FCE770B54D
:100FC0000720FFF715FF044604F04000E8B1602059
:100FD000FFF70EFF0546212D12DA2A46144961203B
:100FE000FFF72EFF29461248FFF7AAFD29461048B1
:100FF00000F0E3FF0F480078401C0E49087003E042
:10100000FF21E220FFF7E4FE00BF04F0100030B142
:1010100004F0010018B1FF21E120FFF7D9FE2146BD
:101020002720FFF7D5FE70BD4C00002051000020A6
:10103000200B00205700002000B587B001210820B8
:1010400001F07AFB0121880301F083FB4FF460403B
:10105000ADF8040001208DF8060018208DF8070077
:1010600001A9314801F078FF4FF48050ADF8040039
:1010700001208DF8060010208DF8070001A92A48EC
:1010800001F06AFF4FF48051274802F012F8002067
:10109000ADF808004FF48270ADF80A000020ADF8FA
:1010A0000C00ADF80E00ADF810004FF40070ADF874
:1010B00012000820ADF814000020ADF8160007203B
:1010C000ADF8180002A9194802F0BAF80121174832
:1010D00002F05BF907B000BD10B5044600BF022165
:1010E000124802F0D6F90028F9D021460F4802F044
:1010F0007DF900BF01210D4802F0CBF90028F9D09D
:101100000A4802F075F9C0B210BD10B54FF4805115
:10111000054801F0CEFF10BD10B54FF480510248D4
:1011200001F0C9FF10BD0000000C01400038004074
:1011300010B588B004460121880301F0FDFA0121B1
:10114000084601F0F9FA0121042001F0F5FA4FF404
:101150000070ADF8040003208DF8060018208DF80B
:10116000070001A9A64801F0F7FE4FF48060ADF832
:10117000040003208DF8060004208DF8070001A963
:101180009F4801F0E9FE0121042001F0B6FF04941C
:101190000020ADF81400ADF81600ADF81800ADF859
:1011A0001C000C20ADF81A000020ADF80800ADF8C6
:1011B0000A004FF40070ADF80C000020ADF80E00EE
:1011C00004A9904802F0DFF902A98E4802F050FA13
:1011D000012240F225518B4802F06DFA0121894825
:1011E00002F05DFA25208DF8000005208DF8010041
:1011F00001208DF802008DF80300684601F005FB20
:1012000008B010BD08B57F4802F07AF9002240F21C
:1012100025517C4802F04FFA25208DF8000000206F
:101220008DF80300684601F0F0FA08BD10B50821FA
:10123000744802F00FFB10B1724802F0A1FA714835
:10124000008800F08000F0B16E480C30008800F09B
:101250008000C0B16C4801780078401C6A4A107068
:101260006A48405C6749091D088010460078684953
:101270000978884207D163480C30008820F080004C
:1012800060490C3108805F48008800F02000002889
:101290006DD05C48001D0088C4B25E48007838B943
:1012A000AA2C05D101205B4908705B4804705DE001
:1012B00058480078012807D1AA2C05D102205549A9
:1012C00008705548447051E052480078022807D110
:1012D000F12C05DC03204F4908704F48847045E02D
:1012E0004C48007803280CD1FF2C0ADA0420494925
:1012F00008704948C4704948047000204849087083
:1013000034E044480078042819D144480078002883
:1013100015DD42480078401E40490870404800787A
:101320003F490978491C3E4A1170001D3A490C5446
:101330003A480078D0B905203649087016E035489B
:10134000007805280FD10020324908703448007811
:10135000001D31490C5432480078401DC1B22E485E
:10136000FFF788FD02E000202A49087000BF10BD89
:1013700010B50446264801780078401C244A1070B5
:1013800022484454012240F227711E4802F093F98A
:1013900010BD10B504460FE020780D2802D1FFF7EC
:1013A000E7FF08E020780A2802D1FFF7E1FF02E01A
:1013B0002078FFF7DDFF641C20780028ECD110BDF9
:1013C00070B504460D4600200AE0225C10490B78F7
:1013D0000978491C0E4E31700C49CA54411CC8B2E0
:1013E000A842F2DB07480C30008800F0800028B9E2
:1013F000012240F22771034802F05DF970BD000040
:101400000008014000380140580000201E0D002057
:10141000590000205A0000201E0E00205B00002012
:101420005C00002008B50121084601F078F901218F
:101430004FF4037001F080F90220ADF800000020A5
:101440008DF8030069464E4801F086FD1F20ADF877
:10145000000069464B4801F07FFD08BD00B591B022
:10146000494802F079FC4948069049480790002015
:1014700008900620099000200A9080200B904000E0
:101480000C9080000D9020200E9000020F90002004
:10149000109006A93C4802F001FD01213A4802F0F3
:1014A00028FD0020019001208DF808008DF809002A
:1014B0004FF4602003900020049006208DF8140063
:1014C00001A932484C3802F046FA4FF4004001F0CE
:1014D00097F80523012200212C484C3802F0D3FA5A
:1014E00005230222012129484C3802F0CCFA0523B9
:1014F0000322022125484C3802F0C5FA05230422B4
:10150000032122484C3802F0BEFA05231A46042172
:101510001E484C3802F0B7FA0523062209211B4861
:101520004C3802F0B0FA012118484C3802F04AFA5F
:10153000012116484C3802F03AFA14484C3802F0AF
:1015400058FA00BF11484C3802F058FA0028F9D177
:101550000E484C3802F05CFA00BF0C484C3802F0E0
:101560005CFA0028F9D1012108484C3802F05FFAF2
:1015700011B000BD10B5FFF755FFFFF76FFF10BDAD
:10158000000C014000080140080002404C240140CA
:101590001E0F002000B587B00121042001F0CCF817
:1015A0000121080301F0C8F8A020ADF804000320D1
:1015B0008DF8060018208DF8070001A9F74801F002
:1015C000CBFC4FF44040ADF808004FF48270ADF80A
:1015D0000A000020ADF80C000220ADF80E0001203A
:1015E000ADF810004002ADF812000020ADF8140074
:1015F000ADF81600ADF8180002A9E94801F020FE88
:101600000121E74801F0C1FE07B000BD10B5044656
:1016100000BF0221E24801F03CFF0028F9D021463A
:10162000DF4801F0E3FE10BD70B505460C4624B15D
:101630000121DC4801F03DFD03E00121D94801F022
:101640003AFD2846FFF7E2FF0121D64801F031FDBF
:1016500070BD70B504460D4605F1B001C8B2002159
:10166000FFF7E2FF102141EA14100021FFF7DCFF31
:1016700004F00F0141F001000021FFF7D5FF70BD1C
:1016800010B500218D20FFF7CFFF00211420FFF7B8
:10169000CBFF0021AF20FFF7C7FF10BD10B5002121
:1016A0008D20FFF7C1FF00211020FFF7BDFF0021B3
:1016B000AE20FFF7B9FF10BD70B5002419E004F1AA
:1016C000B001C8B20021FFF7AFFF00210846FFF7C5
:1016D000ABFF00211020FFF7A7FF002505E0012147
:1016E0000020FFF7A1FF681CC5B2802DF7DB601C4E
:1016F000C4B2082CE3DB70BD2DE9F04707460E4667
:101700009046994600250024A8F12000C5B27F2FFD
:1017100002DD0027B01CC6B2B9F1080F24D1314652
:101720003846FFF796FF002408E004EB05119E4AB7
:10173000505C0121FFF778FF601CC4B2082CF4DB79
:10174000701CC1B23846FFF784FF002409E004EBA7
:1017500005110831944A505C0121FFF765FF601CB8
:10176000C4B2082CF3DB12E031463846FFF771FFB4
:1017700000240AE005EB45018C4A02EB4101085DBB
:101780000121FFF751FF601CC4B2062CF2DBBDE85B
:10179000F08710B50246012000E050430B00A1F194
:1017A0000104E1B2F9D110BD2DE9F05F06468A4689
:1017B00091461D460A9F4FF0000B00242DE0281B88
:1017C000401EC1B20A20FFF7E4FFB9FBF0F00A2186
:1017D000B0FBF1F201FB1208BBF1000F10D1681E43
:1017E000A0420DDDB8F1000F08D107FB0461C8B2BB
:1017F0003B4620225146FFF77FFF0CE04FF0010BE4
:1018000008F13001CAB207FB0461C8B23B46514639
:10181000FFF772FF00BF601CC4B2AC42CFDBBDE873
:10182000F09F2DE9F0470646894617461C464FF0C3
:101830000008642097FBF0F007B2002F4EDD642013
:1018400097FBF0F00A2190FBF1F201FB1200C5B208
:101850005DB105F13001CAB2A119C8B223464946AB
:10186000FFF74AFF4FF0010806E0A119C8B223466E
:1018700020224946FFF740FF0A2097FBF0F00A219B
:1018800090FBF1F201FB1200C5B215B9B8F1000FDF
:101890000AD005F13001CAB206EB4401C8B22346B2
:1018A0004946FFF729FF07E006EB4401C8B223468B
:1018B00020224946FFF720FF0A2097FBF0F100FBAA
:1018C0001170C5B205F13001CAB204EB44013144D4
:1018D000C8B223464946FFF70FFF55E0784207B2EA
:1018E00023462D2249463046FFF706FF642097FB2A
:1018F000F0F00A2190FBF1F201FB1200C5B25DB1DC
:1019000005F13001CAB2A119C8B223464946FFF712
:10191000F3FE4FF0010806E0A119C8B223462022C9
:101920004946FFF7E9FE0A2097FBF0F00A2190FBF9
:10193000F1F201FB1200C5B215B9B8F1000F0AD0DF
:1019400005F13001CAB206EB4401C8B2234649464C
:10195000FFF7D2FE07E006EB4401C8B2234620227F
:101960004946FFF7C9FE0A2097FBF0F100FB117012
:10197000C5B205F13001CAB204EB44013144C8B22A
:1019800023464946FFF7B8FEBDE8F0872DE9F04150
:101990000446884615461F46002617E00008014009
:1019A00000300140000C0140985F0008705D0008A5
:1019B000AA5D3B4641462046FFF79EFEE019C4B2B1
:1019C000802C01DDBDE8F081701CC6B2A85D002846
:1019D000EED100BFF6E72DE9F04781460F461546E8
:1019E0001E46DDF8208000247806070E394648465A
:1019F000FFF72FFE00BF13E0B8F1000F08D005EB92
:101A00008611095DC943C8B20121FFF70DFE05E04B
:101A100005EB8611085D0121FFF706FE601CC4B2CC
:101A2000102CE9DB781CC1B24846FFF712FE0024F7
:101A300015E0B8F1000F09D005EB86112031095DE2
:101A4000C943C8B20121FFF7EFFD06E005EB86119F
:101A50002031085D0121FFF7E7FD601CC4B2102CA6
:101A6000E7DBBDE8F0872DE9F05F06460F469046BC
:101A70001C46DDF828A04FF0000BE11704EB517174
:101A8000C910A4EBC10131B92046E11704EB517133
:101A9000C1F3C70506E02046E11704EB5171C910F8
:101AA000491CCDB23D4615E029463046FFF7D1FD31
:101AB000B1460BE059460BF1010B1AF80100012168
:101AC000FFF7B2FD09F1010000F0FF09C145F1DBAC
:101AD000681CC5B2A542E7DBBDE8F09F06E0401EEA
:101AE00042F2107100E0491E0029FCD10028F6D115
:101AF000704708B5FFF74EFD0121042000F01CFEE1
:101B00000121082000F018FE4020ADF80000102050
:101B10008DF8030003208DF802006946FE4801F0AD
:101B20001BFA0120ADF8000010208DF803000320FF
:101B30008DF802006946F94801F00EFA4021F64896
:101B400001F0B7FA6420FFF7C9FF4021F24801F025
:101B5000B2FAC820FFF7C2FF4021EF4801F0A9FA0E
:101B60000021AE20FFF760FD00210846FFF75CFD75
:101B700000211020FFF758FD00214020FFF754FD01
:101B800000218120FFF750FD0021CF20FFF74CFD01
:101B90000021A120FFF748FD0021C820FFF744FDE8
:101BA0000021A620FFF740FD0021A820FFF73CFD03
:101BB00000213F20FFF738FD0021D320FFF734FD3F
:101BC00000210846FFF730FD0021D520FFF72CFD4E
:101BD00000218020FFF728FD0021D920FFF724FDF8
:101BE0000021F120FFF720FD0021DA20FFF71CFD86
:101BF00000211220FFF718FD0021DB20FFF714FD64
:101C000000214020FFF710FD00212020FFF70CFDF0
:101C100000210220FFF708FD00218D20FFF704FDC1
:101C200000211420FFF700FD0021A420FFF7FCFC99
:101C30000021A620FFF7F8FC0021AF20FFF7F4FCFD
:101C40000021AF20FFF7F0FCFFF736FD002108462A
:101C5000FFF7FFFC08BDF8B505460E461446032EF7
:101C600000DDF8BD0023AE4A314628460094FFF758
:101C7000B2FE05F11001C8B20123A94A3146009411
:101C8000FFF7A9FE05F12001C8B20223A44A31469C
:101C90000094FFF7A0FE05F13001C8B20323A04A6B
:101CA00031460094FFF797FE00BFDAE7F8B5054626
:101CB0000E461446032E00DDF8BD0023994A314636
:101CC00028460094FFF787FE05F11001C8B20123F2
:101CD000944A31460094FFF77EFE05F12001C8B218
:101CE0000223904A31460094FFF775FE05F130015A
:101CF000C8B203238B4A31460094FFF76CFE05F10E
:101D00004001C8B20423874A31460094FFF763FEBE
:101D100000BFD1E7F8B505460E461446032E00DD98
:101D2000F8BD0023804A314628460094FFF753FE51
:101D300005F11001C8B201237B4A31460094FFF738
:101D40004AFE05F12001C8B20223774A31460094C9
:101D5000FFF741FE05F13001C8B20323724A314654
:101D60000094FFF738FE00BFDAE7F8B505460E46E7
:101D70001446032E00DDF8BD00236C4A3146284688
:101D80000094FFF728FE05F11001C8B20123674A4D
:101D900031460094FFF71FFE05F12001C8B202236F
:101DA000624A31460094FFF716FE05F13001C8B2D1
:101DB00003235E4A31460094FFF70DFE00BFDAE7C9
:101DC000F8B505460E461446032E00DDF8BD002387
:101DD000574A314628460094FFF7FDFD05F11001F2
:101DE000C8B20123524A31460094FFF7F4FD05F1D1
:101DF0002001C8B202234E4A31460094FFF7EBFDA2
:101E000005F13001C8B20323494A31460094FFF777
:101E1000E2FD00BFDAE7F8B505460E461446032E8C
:101E200000DDF8BD0023434A314628460094FFF701
:101E3000D2FD05F11001C8B201233E4A314600949B
:101E4000FFF7C9FD05F12001C8B20223394A314626
:101E50000094FFF7C0FD05F13001C8B20323354AF5
:101E600031460094FFF7B7FD05F14001C8B20423E5
:101E7000304A31460094FFF7AEFD05F15001C8B27B
:101E800005232C4A31460094FFF7A5FD00BFC8E7A3
:101E9000F8B505460E461446032E00DDF8BD0023B6
:101EA000254A314628460094FFF795FD05F11001BB
:101EB000C8B20123204A31460094FFF78CFD05F19A
:101EC0002001C8B202231C4A31460094FFF783FD6B
:101ED00005F13001C8B20323174A31460094FFF7D9
:101EE0007AFD05F14001C8B20423134A314600943B
:101EF000FFF771FD05F15001C8B205230E4A3146C6
:101F00000094FFF768FD05F16001C8B206230A4A94
:101F10003146009412E0000000080140000C01402E
:101F20005D0000205D0300205D0100205D020020B7
:101F30009D0400209D0500201D070020FFF74BFD9C
:101F400005F17001C8B207230F4A31460094FFF72C
:101F500042FD00BFA2E7F8B505460E461446032E23
:101F600000DDF8BD0023094A314628460094FFF7FA
:101F700032FD05F11001C8B20123044A3146009434
:101F8000FFF729FD00BFECE71D0700201D09002019
:101F900010B503F0D7FB03F0C3FB03F0A9FB02F07D
:101FA00095FD00207B49087003F0F7FB6420FEF7E5
:101FB0006CFE012003F0F1FB10BD70B5024600205D
:101FC0000AE0145C744B1D781B785B1C724E3370F6
:101FD000724B5C55431CD8B28842F2DB70BD10B521
:101FE0006D4800786E490978884263DD6A48007858
:101FF0006B490978401A3F281FDB002069490870A7
:102000003F206949087000200BE065490A7809788B
:10201000491C634B197061498A5C634B411C5A54DB
:10202000C8B23F28F1DB40224FF48C715E4802F0C9
:1020300055FF022003F032F8ABE05A480078401C0C
:102040005849087008460078584909788842F3D101
:102050000020544908705048007851490978401AC6
:1020600051490870002015E04B4909784C4A127814
:10207000891A814208DD4A4909780144474A525C7D
:10208000494B411C5A5403E00022474B411C5A540F
:10209000411CC8B23F28E7DB3F4800784049087040
:1020A00040224FF48C71404802F018FF022002F0E9
:1020B000F5FF6EE03848007839490978884268DAD7
:1020C00037480078C0F580703349097808443F28C4
:1020D0001FDB0020334908703F203349087000207F
:1020E0000BE02F490A780978491C2D4B19702B49B0
:1020F0008A5C2D4B411C5A54C8B23F28F1DB402268
:102100004FF48C71284802F0E9FE022002F0C6FF6D
:102110003FE024480078401C2249087008460078B7
:1021200022490978884234D100201E4908701C4891
:10213000007840421849097808441B49087000207B
:1021400018E017490978C1F58071134A12781144D3
:10215000814209DD124909780144C9B20F4A525C33
:10216000114B411C5A5403E000220F4B411C5A549E
:10217000411CC8B23F28E4DB0748007808490870D2
:1021800040224FF48C71084802F0A8FE022002F0B1
:1021900085FF10BD020A00209F0900206A0F002061
:1021A0009E090020A0090020881000209D09002021
:1021B00018B50246002016E04B1E441CA3420ADB61
:1021C000244BC35A00939DF8003013549DF80140EE
:1021D000431CD45405E01F4BC35A00939DF80030B4
:1021E0001354831C98B28842E6DB012018BD2DE908
:1021F000F04105460E4600F090FB164800F0D2FB79
:102200008046B8F1040F02D00020BDE8F081002420
:102210001BE0701E611C884206DB295D601C285C87
:1022200001EB002087B203E0285D00F57F4087B214
:1022300008496018394600F0B8FC8046B8F1040F30
:1022400001D00020E1E7A01C84B2B442E1DB012010
:10225000DBE7000000000108064880470648004709
:10226000FEE7FEE7FEE7FEE7FEE7FEE7FEE7FEE746
:10227000FEE7FEE75B230008ED0000080CB5002038
:10228000019000906C48006840F480306A49086012
:1022900000BF6948006800F4003000900198401CBD
:1022A0000190009818B90198B0F5A06FF1D162487B
:1022B000006800F4003010B10120009001E000201F
:1022C00000900098012843D15C48006840F010005D
:1022D0005A4908600846006820F003000860084674
:1022E000006840F002000860534840685249486066
:1022F0000846406848600846406840F4806048608E
:102300000846406820F47C1048600846406840F465
:10231000E81048600846006840F08070086000BF20
:102320004548006800F000700028F9D04248406835
:1023300020F00300404948600846406840F0020031
:10234000486000BF3C48406800F00C000828F9D104
:102350000CBD10B5FFF792FF10BD10B536480068F0
:1023600040F001003449086008464068344908409C
:102370003149486008460068324908402E490860E3
:102380000846006820F4802008600846406820F471
:10239000FE0048604FF41F008860FFF7DAFF4FF03F
:1023A00000602949086010BD10B5002100200022FE
:1023B000214B5B6803F00C0121B1042906D00829E8
:1023C00028D107E0214B224C236027E01F4B204CF3
:1023D000236023E0184B5B6803F47010164B5B68B6
:1023E00003F48032022303EB904022B9194B43439C
:1023F000174C23600DE0104B5B6803F4003323B1EE
:10240000144B4343124C236003E0104B4343104CE6
:10241000236003E00D4B0E4C236000BF00BF064B52
:102420005B68C3F303130C4CE15C094B1B68CB40A6
:10243000074C236010BD0000001002400020024045
:102440000000FFF8FFFFF6FE08ED00E000127A0042
:10245000A409002000093D00A8090020DF48006809
:1024600040F00100DD49086008464068DC4908404A
:10247000DA49486008460068DA490840D7490860E8
:102480000846006820F4802008600846406820F470
:10249000FE0048604FF41F0088607047CF4909680C
:1024A00021F48031CD4A11601146096821F4802160
:1024B0001160B0F5803F03D0B0F5802F0ED106E05B
:1024C000C649096841F48031C44A116007E0C34934
:1024D000096841F4A021C14A116000E000BF00BFBB
:1024E000704710B501460022002300204A11012A3E
:1024F00002D1BA4C236806E0022A02D1B74C236A03
:1025000001E0B64C636A01F01F02012494401C40B4
:102510000CB1012000E0002010BD38B50020009073
:102520000024002500BF3120FFF7DBFF054600989F
:10253000401C00900098B0F5A06F01D0002DF2D0A3
:102540003120FFF7CEFF08B1012400E0002420462F
:1025500038BD01460020A14A106820F0F80040EA8A
:10256000C10010607047A049086070470246002013
:102570009A4B586820F47C1042EA01031843974BA9
:102580005860704798490866704701460020934A92
:10259000506820F003000843506070478F4840683F
:1025A00000F00C007047014600208C4A506820F073
:1025B000F00008435060704701460020874A506889
:1025C00020F4E06008435060704701460020834AD1
:1025D000506820F4605040EAC1005060704729B153
:1025E0007E4A527A02437D4B5A7204E07B4A527A09
:1025F00082437A4B5A7270477B49D83108607047E2
:1026000001460020754A506820F44040084350605D
:1026100070470021714A20321170704A82F82010F0
:10262000012802D004280AD104E001216B4A20329B
:10263000117005E00521694A2032117000E000BFE9
:1026400000BF70476949086070476449096A0143DF
:10265000624A11627047654944390860704730B575
:1026600000210022002400235C4D6D6805F00C0160
:1026700021B1042905D0082923D105E05C4D05606E
:1026800022E05B4D05601FE0544D6D6805F470124B
:10269000524D6D6805F48034022505EB92421CB959
:1026A000544D554305600BE04C4D6D6805F4003505
:1026B0001DB1504D5543056002E04D4D5543056039
:1026C00002E04B4D056000BF00BF444D6D6805F052
:1026D000F0010909484D6B5C0568DD4045603F4DE0
:1026E0006D6805F4E061090A434D6B5C4568DD40A7
:1026F00085603A4D6D6805F46051C90A3E4D6B5CCA
:102700004568DD40C560354D6D6805F44041890B75
:102710003A4D6B5CC568B5FBF3F5056130BD29B179
:102720002E4A526902432D4B5A6104E02B4A5269EA
:1027300082432A4B5A61704729B1284A9269024361
:10274000264B9A6104E0254A92698243234B9A61A1
:10275000704729B1214AD2690243204BDA6104E073
:102760001E4AD26982431D4BDA61704729B11B4A68
:10277000D2680243194BDA6004E0184AD2688243F7
:10278000164BDA60704729B1144A12690243134BA1
:102790001A6104E0114A12698243104B1A617047B2
:1027A00012494039086070470F49C86470470B49A7
:1027B000C87170470948406A40F080700749486214
:1027C000704701460020054A92680A400AB101207C
:1027D00000E00020704701498872704700100240F5
:1027E0000000FFF8FFFFF6FE000042428004424274
:1027F00000127A0000093D00B8090020C809002035
:1028000031490143314A1160704770B500210023FE
:102810000F22C47804B32D4C246804F4E064C4F59A
:10282000E064210AC1F10403CA40447804FA03F1C8
:102830008478144021430901254C0678A155047879
:1028400004F01F050124AC4005786D11AD0005F1C1
:10285000E025C5F8004109E0047804F01F050124D3
:10286000AC401C4D0678761145F8264070BD1A4ADA
:102870000A400243154B1B1F1A60704739B1134AB7
:10288000121D12680243114B1B1D1A6006E00F4A0D
:10289000121D126882430D4B1B1D1A6070470428DD
:1028A00008D14FF0E021096941F004014FF0E02226
:1028B000116107E04FF0E021096921F004014FF0B8
:1028C000E0221161704700000000FA050CED00E005
:1028D00000E400E080E100E080FFFF1F01460020EF
:1028E000FE4A106800F03800084310607047FB494A
:1028F000096821F00801F94A11601146096801438D
:1029000011607047F549096821F01001F34A116020
:1029100011460968014311607047F148EF4948606A
:10292000F04848607047EE48EC494860ED48486020
:102930007047EA48006940F08000E8490861704744
:10294000E648006940F08000E449086170470420CF
:10295000E249C96801F0010109B101200EE0DF4937
:10296000C96801F0040109B1022007E0DB49C96828
:1029700001F0100109B1032000E00420704700B508
:1029800002460423FFF7E3FF034603E0FFF7DFFF00
:102990000346521E012B01D1002AF7D102B90523AB
:1029A000184600BD30B5044604254FF43020FFF72B
:1029B000E6FF0546042D17D1C848006940F0020023
:1029C000C649086108464461006940F0400008615A
:1029D0004FF43020FFF7D3FF0546C048006941F6A9
:1029E000FD710840BD490861284630BD10B504247A
:1029F0004FF43020FFF7C3FF0446042C16D1B7482C
:102A0000006940F00400B54908610846006940F0DB
:102A1000400008614FF43020FFF7B1FF0446AF4893
:102A2000006941F6FB710840AC490861204610BDC1
:102A300000B502460423FFF78AFF034603E0FFF7D1
:102A400086FF0346521E012B01D1002AF7D102B99D
:102A50000523184600BD10B504244FF43020FFF7BD
:102A6000E7FF0446042C16D19C48006940F004009E
:102A70009A4908610846006940F0400008614FF437
:102A80003020FFF7D5FF04469448006941F6FB71FA
:102A9000084092490861204610BD00208F49C9694D
:102AA00001F0020109B1012000E00020704730B5BB
:102AB000A5250424FFF7F1FF00B100254FF43020D5
:102AC000FFF75DFF0446042C3AD1854883498860AE
:102AD000844888600846006940F020000861084684
:102AE000006940F0400008614FF43020FFF747FFD5
:102AF0000446042C1BD17948006941F6DF71084077
:102B0000764908610846006940F01000086176487F
:102B10000580E002FFF733FF0446052C10D06F4814
:102B2000006941F6EF7108406C49086108E0052C26
:102B300006D06A48006941F6EF71084067490861AC
:102B4000204630BD78B506460C460425002000908E
:102B5000E802FFF714FF0546042D24D15F48006901
:102B600040F001005D4908613480E802FFF707FF8B
:102B70000546042D10D1B01C0090200C009908804F
:102B8000E802FFF7FCFE05465448006941F6FE7175
:102B900008405249086106E05048006941F6FE715C
:102BA00008404E490861284678BD70B504460D4678
:102BB0000426F002FFF7E3FE0646042E11D1474833
:102BC000006940F00100454908612580F002FFF7E7
:102BD000D6FE06464148006941F6FE7108403F496D
:102BE0000861304670BD70B505460E460424E0020B
:102BF000FFF7C5FE0446042C17D1394837498860D1
:102C0000384888600846006940F0100008612E804E
:102C1000E002FFF7B4FE0446052C06D02F480069F9
:102C200041F6EF7108402D490861204670BD2DE93D
:102C3000F04304464FF6FF763746B046B1460425CA
:102C4000E443E6B2C4F30727C4F307484FEA146924
:102C5000E802FFF794FE0546042D49D120481F499C
:102C60008860204888600846006940F010000861CC
:102C7000FF2E06D01C4808300680E802FFF77FFED2
:102C80000546042D08D1FF2F06D017480A300780CB
:102C9000E802FFF774FE0546042D0AD1B8F1FF0FD4
:102CA00007D011480C30A0F80080E802FFF767FE5B
:102CB0000546042D0AD1B9F1FF0F07D00A480E309E
:102CC000A0F80090E802FFF75AFE0546052D0FD048
:102CD0000248006941F6EF71084007E00020024019
:102CE00023016745AB89EFCD00F8FF1F66490861F6
:102CF0002846BDE8F08330B5054604244FF4302063
:102D0000FFF73DFE0446042C41D160485E498860CF
:102D10005F4888600846006940F020000861084666
:102D2000006940F0400008614FF43020FFF727FEB3
:102D30000446042C22D15448006941F6DF71084052
:102D4000514908610846006940F0100008611DB152
:102D500000205049088002E0A5204E4908804FF429
:102D60003020FFF70CFE0446052C10D046480069C1
:102D700041F6EF7108404449086108E0052C06D08F
:102D80004148006941F6DF7108403F49086120462B
:102D900030BDF0B505460E46174604243B483A4977
:102DA00088603B488860E002FFF7E9FD0446042C98
:102DB00019D13548006940F010003349086147F0E7
:102DC000F800304328433349891C0880E002FFF7AC
:102DD000D6FD0446052C06D02B48006941F6EF715C
:102DE0000840294908612046F0BD2748C06980088D
:102DF00070472548006A704700202349096801F0A0
:102E0000200109B1012000E00020704729B11E4ACD
:102E1000126902431C4B1A6104E01B4A1269824387
:102E2000194B1A61704701460020012908D1164A42
:102E3000D26902F001020AB1012008E0002006E098
:102E4000114AD2680A400AB1012000E00020704710
:102E50000D49C860704704200B49C96801F00101A1
:102E600009B101200EE00849C96801F0040109B167
:102E7000022007E00449C96801F0100109B10320EC
:102E800000E0042070470000002002402301674555
:102E9000AB89EFCD00F8FF1F10B50446CC48844243
:102EA00008D101210420FFF761FC00210420FFF775
:102EB0005DFC46E0C748844208D101210820FFF7A5
:102EC00055FC00210820FFF751FC3AE0C24884423B
:102ED00008D101211020FFF749FC00211020FFF745
:102EE00045FC2EE0BD48844208D101212020FFF797
:102EF0003DFC00212020FFF739FC22E0B848844245
:102F000008D101214020FFF731FC00214020FFF7CC
:102F10002DFC16E0B348844208D101218020FFF740
:102F200025FC00218020FFF721FC0AE0AE48844206
:102F300007D101218015FFF719FC0021A015FFF72B
:102F400015FC10BD10B501210846FFF70FFC00214C
:102F50000120FFF70BFC10BD2DE9F04102460025D2
:102F60000026002000230024002791F803C00CF065
:102F70000F0591F803C00CF0100CBCF1000F03D04A
:102F800091F802C04CEA050591F800C0BCF1000FB1
:102F900031D0146800202BE04FF0010C0CFA00F344
:102FA000B1F800C00CEA03069E4220D183004FF026
:102FB0000F0C0CFA03F7BC4305FA03FC4CEA0404BB
:102FC00091F803C0BCF1280F06D14FF0010C0CFAA8
:102FD00000FCC2F814C00AE091F803C0BCF1480F2D
:102FE00005D14FF0010C0CFA00FCC2F810C0401CD7
:102FF0000828D1D31460B1F800C0BCF1FF0F34DD54
:10300000546800202EE000F1080C4FF0010808FA87
:103010000CF3B1F800C00CEA03069E4221D18300F4
:103020004FF00F0C0CFA03F7BC4305FA03FC4CEA13
:10303000040491F803C0BCF1280F05D100F1080C7D
:1030400008FA0CF8C2F8148091F803C0BCF1480FDC
:1030500007D100F1080C4FF0010808FA0CF8C2F88B
:103060001080401C0828CED35460BDE8F0814FF694
:10307000FF710180022181700421C17070470246F6
:10308000002093680B400BB1012000E00020704746
:103090000146886880B2704702460020D3680B4022
:1030A0000BB1012000E0002070470146C86880B2E3
:1030B000704701617047416170470AB1016100E0EA
:1030C00041617047C16070474FF480320A438261AA
:1030D0008161826182698269704702460020434BA8
:1030E00018684FF68073184040EA021008433F4BBF
:1030F000186070473E49C8617047F0B50A46002322
:1031000000240021002500F00046B6F1004F02D156
:10311000364EF16901E0354E7168C0F3034583B264
:1031200000F44016B6F5401F08D121F070612F4E13
:10313000766826F070662D4F7E6012E000F48016EF
:10314000B6F5801F06D1032606FA05F4A14341F027
:10315000706106E0460D360103FA06F6B14341F010
:10316000706122B1460D360103FA06F6314300F0D4
:103170000046B6F1004F02D11C4EF16101E01B4E3A
:103180007160F0BD30B500228B071C0F0F2303FACE
:1031900004F2164B08338C1053F824309343134C2D
:1031A00008348D1044F8253023468C1053F8243011
:1031B0008C07240F00FA04F423430C4C08348D10C0
:1031C00044F8253030BD0A49DC3108607047000002
:1031D00000080140000C01400010014000140140B3
:1031E00000180140001C0140002001400000014087
:1031F0000000204210B50446BE48844208D1012197
:103200008014FFF7B3FA0021A014FFF7AFFA16E01D
:10321000B948844208D101210014FFF7B4FA002113
:103220002014FFF7B0FA0AE0B448844207D1012124
:10323000C013FFF7A8FA0021E013FFF7A4FA10BDAE
:1032400010B50022028802F441520B884C882343B7
:103250008C882343CC8823430C8923434C89234304
:103260008C892343CC8923431A430280838B4FF2FA
:10327000FF74234083830B8A038210BD2DE9F04F36
:1032800085B005460C464FF0000902274FF00008B4
:103290004FF0010B0026B246A88B4FF240010840C8
:1032A000A88302202884B5F81C90A068022801D1C8
:1032B00000BF38E0A08810B94FF0010B01E04FF0DB
:1032C000020B8D48854200D100E000BF6846FFF741
:1032D000C6F9DDF800A0E088B0F5007F0AD14FEA1A
:1032E0001A2000EB80004000A168B0FBF1F0401D07
:1032F00086B20BE04FEA4B10BAFBF0F000EB800017
:103300004000A168B0FBF1F0401D86B20A20B6FB78
:10331000F0F606F00108A6EB0800C0F34F074FF6E1
:10332000FF7000EA0828022F01DBFF2F02DD0227D1
:103330004FF00008E08840EA080038432884A0885D
:10334000A1890843618808432188084340F400604C
:1033500040EA0909A5F81C9005B0BDE8F08F0021EE
:10336000018041808180C180018141818181C18151
:103370000721018270470021018041808180C18046
:103380000221816000218181704721B1028842F0D1
:103390004002028004E002884FF6BF731A400280A8
:1033A000704721B1828B42F48062828304E0828B79
:1033B0004FF6FF331A408283704730B50024002354
:1033C0000C110125A540ABB21AB185881D4385803B
:1033D00002E085889D43858030BD1AB183880B4308
:1033E000838002E083888B438380704781817047AC
:1033F0000146888970474FF6FF62914204D00288E7
:1034000042F48072028004E002884FF6FF631A40A3
:103410000280704721B1828842F00402828004E079
:1034200082884FF6FB731A408280704702884FF201
:10343000FF731A40028002880A43028070470188A5
:1034400041F480510180704721B1028842F400525A
:10345000028004E002884DF6FF731A400280704734
:1034600002460020012901D0108B00E0908A7047AD
:103470000146088A7047B1F5804F04D1028842F4B2
:103480008042028004E002884BF6FF731A400280FB
:1034900070470246002013890B400BB1012000E069
:1034A00000207047CA4302817047F0B502460020F1
:1034B00000240023002501F00F070126BE40B4B20E
:1034C0000B1101269E40B3B2968806EA03051689C1
:1034D000264016B10DB1012000E00020F0BD10B56E
:1034E000002201F00F040123A3409AB2D3430381C9
:1034F00010BD00000030014000380040003C00409A
:1035000010B50446FB48844209D101218803FFF726
:103510002DF900214FF48040FFF728F932E0F648FA
:10352000844209D101214804FFF72DF900214FF40D
:103530000030FFF728F925E0F048844209D1012145
:103540008804FFF720F900214FF48020FFF71BF9D2
:1035500018E0EB48844209D10121C804FFF713F9B0
:1035600000214FF40020FFF70EF90BE0E5488442FC
:1035700008D101210805FFF706F900214FF480105A
:10358000FFF701F910BD2DE9F04786B005460E465C
:103590000024A24600BFA1460027B08900B100BFA9
:1035A0002F462C8A4CF6FF700440F08804432C828E
:1035B000AC894EF6F3100440B08831890843718914
:1035C00008430443AC81AC8A4FF6FF400440B08905
:1035D0000443AC8201A8FFF742F8C648874202D1F3
:1035E000DDF810A001E0DDF80CA0A88900F400408F
:1035F00040B10AEBCA0000EB0A1031684900B0FB89
:10360000F1F807E00AEBCA0000EB0A103168890004
:10361000B0FBF1F86420B8FBF0F00401200964214C
:1036200001FB1089A88900F4004040B1322000EB72
:10363000C900B0FBF1F000F00700044308E03220BD
:1036400000EB09106421B0FBF1F000F00F0004431F
:103650002C8106B0BDE8F0874FF4165101600021BF
:103660008180C18001810C214181002181817047CD
:1036700010B502460020108A4FF2FF0318400B8855
:103680004C8823438C882343CC88234318431082DF
:1036900010BD0021018041808180C180704721B12F
:1036A000828942F40052828104E082894DF6FF73E0
:1036B0001A4082817047F0B5034600240026002599
:1036C000002040F66A17B94200D100BF1846C1F386
:1036D000421401F01F06012707FA06F5012C01D15B
:1036E0000C3004E0022C01D1103000E014301AB18B
:1036F00007682F43076002E00768AF430760F0BD2B
:103700001AB1838A0B43838202E0838A8B438382CC
:103710007047028A4FF6F0731A400282028A0A4307
:103720000282704782894FF2FF731A408281828938
:103730000A438281704721B1828942F0020282816C
:1037400004E082894FF6FD731A4082817047028A35
:103750004FF6DF731A400282028A0A4302827047E0
:1037600021B1028A42F48042028204E0028A4BF6CE
:10377000FF731A4002827047C1F3080282807047CB
:1037800001468888C0F308007047818941F0010133
:1037900081817047028BD2B20283028B42EA0122FE
:1037A00002837047028B02F47F420283028B0A433A
:1037B0000283704721B1828A42F02002828204E0B3
:1037C000828A4FF6DF731A408282704721B1828A63
:1037D00042F01002828204E0828A4FF6EF731A40B0
:1037E0008282704721B1828A42F00802828204E01C
:1037F000828A4FF6F7731A408282704721B182891C
:1038000042F40042828103E08289C2F30E02828187
:10381000704721B1828A42F40062828204E0828A87
:103820004FF2FF731A4082827047828A4FF6FB7311
:103830001A408282828A0A438282704721B1828A38
:1038400042F00202828204E0828A4FF6FD731A403F
:103850008282704702460020B1F5007F00D100BF90
:1038600013880B400BB1012000E00020704701F4E9
:103870000072B2F5007F00D100BFCA4302807047DA
:1038800070B50246002400230025002040F66A1689
:10389000B14200D100BFC1F3421501F01F03012660
:1038A00006FA03F3012D02D19689334006E0022D7A
:1038B00002D1168A334001E0968A33400C12012669
:1038C00006FA04F41688344013B10CB1012000E06C
:1038D000002070BD10B50022002340F66A14A142FA
:1038E00000D100BF0A1201249440A3B2DC4304803B
:1038F00010BD000000380140004400400048004076
:10390000004C00400050004010B50446FA48844284
:1039100008D101214015FEF729FF00216015FEF7AF
:1039200025FF17E0F548844208D101210015FEF774
:103930001DFF00212015FEF719FF0BE0F04884421F
:1039400008D10121C803FEF711FF00214FF4004008
:10395000FEF70CFF10BD30B5024600200023506872
:10396000E84C20400D790C6844EA0524204350605F
:103970009068E54C2040D1E902542C434D7944EA4B
:10398000450420439060D06A20F470000C7C641ED3
:10399000E4B2234340EA0350D06230BD002101600D
:1039A000017141718160C16001210174704721B1D1
:1039B000826842F00102826003E0826822F0010224
:1039C0008260704721B1826842F48072826003E0B5
:1039D000826822F480728260704710B50023CBB2F7
:1039E0001AB144681C43446002E044689C4344604C
:1039F00010BD816841F008018160704701460020D8
:103A00008A6802F008020AB1012000E00020704735
:103A1000816841F0040181607047014600208A6896
:103A200002F004020AB1012000E00020704721B139
:103A3000826842F4A002826003E0826822F4A0025D
:103A400082607047014600208A6802F480020AB151
:103A5000012000E00020704710B50A460021002335
:103A6000416821F46041531E41EA4331416010BD79
:103A700021B1426842F40062426003E0426822F4ED
:103A8000006242607047F0B504460D4600200021F8
:103A9000092D11DDE068A5F10A0606EB46070726A9
:103AA00006FA07F18843A5F10A0606EB460603FA73
:103AB00006F10843E0600CE0206905EB45070726A6
:103AC00006FA07F1884305EB450603FA06F10843B9
:103AD0002061072A0FDA606B561E06EB86071F2649
:103AE00006FA07F18843561E06EB860605FA06F12C
:103AF0000843606322E00D2A0FDA206BD61F06EB25
:103B000086071F2606FA07F18843D61F06EB8606AE
:103B100005FA06F10843206310E0E06AA2F10D0601
:103B200006EB86071F2606FA07F18843A2F10D0669
:103B300006EB860605FA06F10843E062F0BD21B106
:103B4000826842F48012826003E0826822F480126C
:103B5000826070470146C86C80B2704766484C303E
:103B60000068704721B1426842F48062426003E01D
:103B7000426822F480624260704721B1426842F498
:103B80008052426003E0426822F4805242607047F3
:103B90000A460021816821F4E041114381607047A9
:103BA00021B1826842F40042826003E0826822F41C
:103BB00000428260704721B1826842F40212826042
:103BC00003E0826822F402128260704701460020FE
:103BD0008A6802F400120AB1012000E00020704758
:103BE000F0B504461546002000220026092911DD03
:103BF000E068A1F10A0707EB470C072707FA0CF268
:103C00009043A1F10A0707EB470703FA07F21043B5
:103C1000E0600CE0206901EB410C072707FA0CF289
:103C2000904301EB410703FA07F210432061A06BB8
:103C3000C0F30156EF1C06F1010CA7EB0C0707EBD4
:103C4000870C1F2707FA0CF29043EF1C06F1010CBA
:103C5000A7EB0C0707EB870701FA07F21043A063F5
:103C6000F0BD10B50A4600210023816B21F44011FC
:103C7000531E41EA0351816310BD08B50023009330
:103C80000090009B0B440093009B1A6008BD08B590
:103C9000024600200090009201F12800009B184489
:103CA00000900098006880B208BD0A460021416873
:103CB000164B194011434160704741628262704760
:103CC0000A460021416821F01F01114341607047FD
:103CD00040B109490831096841F40001064A083237
:103CE000116007E004490831096821F40001024A23
:103CF0000832116070470000002401400028014094
:103D0000003C0140FFFEF0FFFDF7F1FFFFFD3FFF2C
:103D10000246002013680B400BB1012000E0002098
:103D20007047CA430260704770B502460020002306
:103D300000240B125568CEB205EA060415681D4032
:103D400015B10CB1012000E0002070BD00220A1264
:103D5000D34303607047000001684FF6FE721140C4
:103D600001600021016041608160C1608D4988422D
:103D700008D18C490839496841F00F01894A083A4D
:103D800051608AE087491431884208D18549083951
:103D9000496841F0F001834A083A51607DE0814969
:103DA0002831884208D17F490839496841F4706157
:103DB0007C4A083A516070E07A493C31884208D127
:103DC00078490839496841F47041764A083A5160A7
:103DD00063E074495031884208D172490839496812
:103DE00041F470216F4A083A516056E06D496431E0
:103DF000884208D16B490839496841F47001694A21
:103E0000083A516049E067497831884208D16549EC
:103E10000839496841F07061624A083A51603CE0F3
:103E20006149884206D1011F096841F00F01021F54
:103E3000116032E05C491431884208D15A49091FA7
:103E4000096841F0F001584A121F116025E05649F7
:103E50002831884208D15449091F096841F470612A
:103E6000514A121F116018E04F493C31884208D175
:103E70004D49091F096841F470414B4A121F1160F6
:103E80000BE049495031884207D14749091F096869
:103E900041F47021444A121F1160704710B500228E
:103EA000026847F6F0739A430C6A8B6823430C69E7
:103EB00023434C6923438C692343CC6923434C6AD5
:103EC00023438C6A23431A430260CB6843600B6828
:103ED00083604B68C36010BD002101604160816058
:103EE000C160016141618161C161016241628162C0
:103EF000704721B1026842F00102026004E00268EA
:103F00004FF6FE731A40026070471AB103680B4304
:103F1000036002E003688B430360704741607047B1
:103F20000146486880B2704701460020002201F037
:103F300080531BB11C4B083B1A6802E0194B083B2D
:103F40001A6802EA01030BB1012000E0002070476B
:103F500000F0805119B11449091F086002E01149AD
:103F600008394860704701460020002201F0805364
:103F70001BB10D4B083B1A6802E00A4B083B1A685C
:103F800002EA01030BB1012000E00020704700F0BD
:103F9000805119B10449091F086002E0014908393C
:103FA00048607047080002400804024010B504460B
:103FB0002CB90120F94909680882002010BDF84990
:103FC000096808688047F54800680A30F6E710B5C8
:103FD000F2480068C078F3494978884213DCEF481A
:103FE0000068807878B9ED480068808858B9EB4857
:103FF0000068C078E94909688872E9490968486831
:104000008047002010BD0220FCE710B504462CB903
:104010000120E24909680882002010BDE0490968D2
:1040200088688047DD4800680C30F6E710B5DB4B48
:104030001B68D978D94B1B685879DB4B1B689A6988
:1040400090470446D5480068807AE8B13CB9D34827
:104050000068007918B9D1480068807808B102205A
:1040600010BD8CB9CE490968C8688047CB48006844
:104070004079CA490968C872C8480068C078C74909
:10408000096808730020EBE70220E9E710B5044651
:104090002CB90220C14909680882002010BD002007
:1040A000C2490880BD480068007800F07F00E0B990
:1040B000BA490968487A00F0200129B1BB4909785A
:1040C00041F00201B94A117000F0400131B1B74925
:1040D000097801F0FE01B54A117005E0B34909788D
:1040E00041F00101B14A11703AE0AC480068007833
:1040F00000F07F00012801D1AC48CFE7A748006855
:10410000007800F07F00022828D1A44A1268517973
:1041100001F00F0001F080027AB1A54B03EB8002A1
:10412000D2F8002C02F03002102A16D19F4A1278E1
:1041300042F001029D4B1A700FE09D4B03EB800291
:10414000D2F8002C02F44052B2F5805F05D1974AB4
:10415000127842F00102954B1A7001E000209DE7B1
:104160008F49096808698047904897E72DE9F0472B
:104170008A480068007800F07F08B8F1000F0AD183
:1041800086480068407A00F0DF0084490968487278
:104190000020BDE8F087B8F1020F7DD17F480068AC
:1041A000408818B97D480068007908B10220F0E71E
:1041B000DFF8F09179480068477927F080052C46B0
:1041C00076480068407900F0800038B1784901EB0A
:1041D0008400D0F8000C00F0300606E0744901EBD2
:1041E0008400D0F8000C00F4405699F80000A84272
:1041F00004D91EB169480068807A08B90220C8E76E
:1042000007F0800080B16A4901EB8400D0F8000C0F
:1042100000F03000102843D1E0B201F031F8E0B2F4
:10422000302100F0DAFE3BE0614901EB8400D0F878
:10423000000C00F44050B0F5805F31D1C4B95D4A44
:1042400092F82C10E0B201F0A6F8594A02EB840172
:10425000D1F8001C4BF68F7201EA020080F4805006
:1042600080F40050524A02EB8401C1F8000C17E0C0
:10427000E0B200F0EEFF4E4A02EB8401D1F8001CE0
:104280004BF68F7201EA020080F4805080F40050F7
:10429000474A02EB840100E008E0C1F8000C00BFCF
:1042A0003F49096848698047002072E700BF022043
:1042B0006FE72DE9F04139480068467926F080071C
:1042C0003C4636480068407900F0800038B13849F3
:1042D00001EB8400D0F8000C00F0300506E0344912
:1042E00001EB8400D0F8000C00F440552D48007814
:1042F000A04208D929480068408820B91DB1274844
:104300000068807A10B90220BDE8F08106F08000D4
:1043100080B1274A02EB8401D1F8001C48F6BF7235
:1043200001EA020080F01000214A02EB8401C1F88A
:10433000000C10E01E4A02EB8401D1F8001C4BF681
:104340008F7201EA020080F48050194A02EB840166
:10435000C1F8000C00BF1249096888698047002035
:10436000D2E710B50D480068407A40F020000B49B4
:10437000096848720A490968C8698047002010BD69
:1043800010B5024605480068438AAAB98888C01A51
:10439000024C24682082002010BD0000D4090020B7
:1043A000E0090020440A0020D8090020CC090020A0
:1043B00000500040480A002008681844ECE72DE946
:1043C000F041FE48006800F110042688A068C0B1E2
:1043D000BEB1A588B54200D93546A8B2A1688847C4
:1043E00007462088401B2080608828446080002089
:1043F00000F0A3FF8046AAB24146384600F088FD8F
:1044000000BF208850B14FF44050ED490880002192
:10441000084600F09EFF3020EA4908802088A188E5
:10442000884204DB0320E5490968087218E0208807
:10443000002804DD0520E1490968087210E02088A1
:1044400070B90620DD49096808720021DE4800685D
:1044500080B2801CDD4A42F810103020D949088013
:10446000BDE8F0812DE9F047D448006800F110055F
:104470002E88D2480068077AD6B9042F18D1D448BC
:10448000007801280FD10021CF48006880B2801C3D
:10449000CE4A42F810103020CA49088000BF0020E0
:1044A000CB49087003E007271020C649088027E0A1
:1044B000AC88A64201D8042000E002200746B4429E
:1044C00000D93446A0B2A96888478046002000F091
:1044D00029FF8146A2B24946404600F0FFFCA1B246
:1044E000002000F036FF2888001B288068882044C0
:1044F00068803020B34908800002B149088000BFBD
:10450000AE4909680F72BDE8F08770B50226AB4866
:1045100000684478A9480068007800F07F0000280F
:104520004AD1092C03D1FFF752FD064665E0052C60
:1045300014D1A2480068C0787F280BDC9F4800682F
:10454000807838B99D480068808818B99B48006811
:10455000807A08B108256BE000264EE0032C14D1C8
:1045600096480068C07801280DD19448006880887A
:1045700048B992480068407A00F0200018B1FFF76F
:10458000F0FE064639E0022637E0012C35D18B4893
:104590000068C07801280DD188480068808848B933
:1045A00086480068407A00F0200018B1FFF7DEFD71
:1045B000064622E0022620E080480068007800F0ED
:1045C0007F00012805D10B2C17D1FFF72FFD0646E0
:1045D00013E07A480068007800F07F0002280BD1D1
:1045E000012C03D1FFF7C2FD064606E0032C04D1DF
:1045F000FFF75FFE064600E002264EB1E0B2754AC4
:104600001268516988470646032E01D109250FE03B
:104610000EB108250CE0062500216B48006880B229
:10462000801C6A4A42F8101030206649088000BF9A
:10463000624909680D7270BD2DE9F84F5F48006846
:1046400045780027BA46062D1BD15C4800680078E3
:1046500000F07F00002813D15849096888780128A4
:1046600003D15C490968CF690AE0022803D159499E
:1046700009680F6A04E0032802D1564909684F6AA5
:1046800099E0002D67D14D4800684088002862D12C
:104690004A480068C08802285DD14848006800790F
:1046A000002858D145480068007800F07F0030B9F4
:1046B00042480068808810B9AFF22F677BE03F481E
:1046C0000068007800F07F00012811D13B4909689B
:1046D0004879404909688A690021904700286AD1D1
:1046E00036480068807A002865D0AFF25F6762E0E4
:1046F00032480068007800F07F0002285BD12F4824
:104700000068407900F00F062C480068407900F0FE
:1047100070092A480068407900F0800038B12E49BD
:1047200001EB8600D0F8000C00F0300806E02A49C2
:1047300001EB8600D0F8000C00F4405827480078C0
:10474000B04238D9B9F1000F35D1B8F1000F32D0ED
:10475000AFF2C7672FE0082D08D11848006800782D
:1047600000F07F0038BBAFF2BB7724E00A2D22D1E6
:1047700012480068007800F07F0001281BD10F4824
:104780000068807AB8B10D480068408898B90B4835
:104790000068007978B909480068C08801280AD102
:1047A0000649096848790B4909688A6900219047D8
:1047B00008B9AFF2A977EFB1004811E0D4090020A1
:1047C000E4090020E6090020505C00400060004041
:1047D000CE090020D809002000500040440A0020E3
:1047E0000068A0F812A0AE48006887610020B847B2
:1047F00000240FE0AA4A12685078AA4A1268116988
:1048000088470446032C05D10920A5490968087288
:10481000BDE8F88FA2480068008A4FF6FF71884211
:1048200004D109209E4909680872F1E7022C03D0DF
:104830009B480068008A20B90820994909680872D5
:10484000E6E797480068007800F08000E0B39448FD
:104850000068C088009092480068008A00998842E9
:1048600004D98F4900980968088223E08C480068C1
:10487000008A8B490968C98888421BDA8848006821
:10488000008A8849096891F82C10884203DA0020D0
:10489000854908700EE082480068008A81490968ED
:1048A00091F82C1090FBF1F201FB120010B90120DD
:1048B0007D4908707B48006890F82C1078480068A3
:1048C0008182FFF7CFFD07E0FFE703207449096805
:1048D000087200037549088000BF99E710B5744855
:1048E00090F82C10002000F056FD6D480068007A0A
:1048F000082805D140026D49088010206D490880C4
:1049000067480068007A092801D1012010BD002005
:10491000FCE708B56848006880B2001D674931F8B7
:10492000100080B201EB400000905D480068007A02
:1049300009282FD000980078594909680870009814
:10494000401C00900098007855490968487000980C
:10495000401C00900098801C0090009931F8020BD8
:10496000009100F0B9FE4E49096848800098801C0B
:104970000090009931F8020B009100F0ADFE48491B
:10498000096888800098801C00900098008844493D
:104990000968C880012042490968087240480068D7
:1049A000C08810B9FFF7B1FD01E0FFF745FEFFF742
:1049B00095FF08BD30B50146414B1A78002011E043
:1049C0000306404C04EB9353D3F8003C48F68F7435
:1049D0002340C4B2234304063A4D05EB9454C4F873
:1049E000003C401C9042EBD341F08003324C241F2A
:1049F000236030BD10B52A480068047A022C01D02B
:104A0000042C05D1FFF72EFD25480068047A1CE030
:104A1000062C19D122480068407805280ED120487C
:104A20000068007800F07F0040B91D490968C87827
:104A3000FFF7C0FF24490968086A804719490968D7
:104A400088688047082400E00824154909680C722A
:104A5000FFF744FF10BD10B511480068047A032C1D
:104A600001D0052C05D1FFF7AAFC0D480068047A97
:104A70000EE0072C05D10B490968C8688047082457
:104A800006E0022C01D0042C01D1082400E0082407
:104A9000034909680C72FFF721FF10BD7047000041
:104AA000D4090020D8090020CE090020E409002004
:104AB000480A0020E6090020505C004000600040E9
:104AC000440A002000500040E009002010B50848CA
:104AD0000849086002200968087207480749086009
:104AE000074808490860054909680868804710BDFB
:104AF0006C100020D4090020480A0020D8090020AA
:104B0000780A0020E009002010B5002473E147F680
:104B1000FF70EA490860EA48008800F00F00E949A0
:104B200008700846007800287ED1E44844380068C0
:104B300000F44050E4490880E0484438006800F040
:104B40003000E2490880DD49443909684BF68F722C
:104B500001EA020080F40050D8494439086009682D
:104B600048F6BF7201EA020080F02000D3494439C0
:104B70000860D348008800F01000002838D10846AB
:104B8000006848F60F710840CC4944390860FFF7C7
:104B900031FFCA49443909684BF68F7201EA0200B5
:104BA000C949098801F4805109B180F48050C6498F
:104BB000098801F4005109B180F40050BF4944391B
:104BC0000860096848F6BF7201EA0200BF49097827
:104BD00001F0100109B180F01000BC49097801F022
:104BE000200109B180F02000B4494439086010BDAB
:104BF000B2484438006884B204F08000D8B3AF48AB
:104C00004438006848F60F710840AC4944390860E0
:104C1000FFF7F0FEA949443909684BF68F7201EAA3
:104C20000200A949098800E0A6E001F4805109B119
:104C300080F48050A449098801F4005109B180F43E
:104C400000509E4944390860096848F6BF7201EA7D
:104C500002009E49097801F0100109B180F01000AE
:104C60009A49097801F0200109B180F020009349A8
:104C700044390860BBE7FFE704F40060D8B38F480D
:104C800044380068C0F30E0048F68F7108408B4925
:104C900044390860FFF73DFE8849443909684BF6FE
:104CA0008F7201EA02008849098801F4805109B134
:104CB00080F480508449098801F4005109B180F4DE
:104CC00000507E4944390860096848F6BF7201EA1D
:104CD00002007E49097801F0100109B180F010004E
:104CE0007A49097801F0200109B180F02000734968
:104CF000443908607BE7FFE704F4004000287AD0DD
:104D00006E4844380068C0F30E0048F68F710840C2
:104D10006A4944390860FFF79EFE684944390968CA
:104D20004BF68F7201EA02006749098801F480514D
:104D300009B180F480506449098801F4005109B137
:104D400080F400505D4944390860096848F6BF7234
:104D500001EA02005D49097801F0100109B180F013
:104D600010005A49097801F0200109B180F02000B3
:104D70005249443908603AE752480078544901EBF7
:104D80008000D0F8000C84B204F40040C0B14D485B
:104D9000007801EB8000D0F8000CC0F30E0048F65C
:104DA0008F71084047490978494A02EB8101C1F8EF
:104DB000000C44490978491E464A52F821008047B0
:104DC00004F08000B8B13F480078414901EB800011
:104DD000D0F8000C48F60F7108403A4909783C4A6F
:104DE00002EB8101C1F8000C36490978491E3A4AA4
:104DF00052F8210080473148006880B2304908806D
:104E000000F4004000287FF482AE00BFEFE610B54A
:104E1000002449E047F6FF702849086028480088C8
:104E200000F00F002749087008460078284901EB78
:104E30008000D0F8000C84B204F40040C8B12148CE
:104E4000007801EB8000D0F8000CC0F30E0048F6AB
:104E50008F7108401B4909781D4A02EB8101C1F896
:104E6000000C18490978491E1A4A52F82100804757
:104E70001AE004F08000B8B112480078144901EB40
:104E80008000D0F8000C48F60F7108400D490978F1
:104E90000F4A02EB8101C1F8000C0A490978491E4A
:104EA0000D4A52F8210080470448006880B2044946
:104EB000088000F400400028ACD110BD445C0040E4
:104EC000040A0020D0090020E4090020E60900209F
:104ED00000500040240A0020080A0020F0B51446C3
:104EE00004F1010C4FEA6C07DFF848C00CEB4103FA
:104EF0003D460AE00678401C90F800C046EA0C22C5
:104F000023F8022B9B1C401C6D1E002DF2D1F0BD1E
:104F1000F0B5561C7510074E06EB41042B4605E014
:104F200034F8047B20F8017B401C5B1E002BF7D17A
:104F3000F0BD000000600040F74908607047F64887
:104F4000006880B27047F449091D08607047F24854
:104F5000001D006880B27047EF480830006880B2DA
:104F60007047ED490C3108607047EB480C30006821
:104F700080B270474FF6F8710140E74A1032116075
:104F80007047E5481030006880B27047E34B03EB90
:104F90008002C2F8001C70470146E04A02EB810023
:104FA000D0F8000C80B2704710B5DC4B03EB8002E8
:104FB000D2F8002C48F68F131A400A43D74C04EB62
:104FC0008003C3F8002C10BD0146D44A02EB8100D7
:104FD000D0F8000C00F4C060704710B5CF4C04EB63
:104FE0008003D3F8003C48F6BF7403EA040201F0E2
:104FF00010030BB182F0100201F020030BB182F01C
:105000002002C64C04EB8003C3F8002C10BD10B581
:10501000C24C04EB8003D3F8003C4BF68F7403EAD8
:10502000040201F480530BB182F4805201F4005366
:105030000BB182F40052B94C04EB8003C3F8002C8E
:1050400010BD30B503460C461846FFF7A5FF0546D0
:10505000012C07D125F48050B04A02EB8301C1F83E
:10506000000C08E0022C06D125F01000AB4A02EB40
:105070008301C1F8000C30BD0146A84A02EB810053
:10508000D0F8000C00F0300070470146A34A02EB54
:105090008100D0F8000C00F4405070479F4B03EBA8
:1050A0008002D2F8002C48F6BF7302EA030181F0B7
:1050B000100181F02001994B03EB8002C2F8001C23
:1050C0007047964B03EB8002D2F8002C4BF68F739F
:1050D00002EA030181F4805181F400518F4B03EB0C
:1050E0008002C2F8001C70478C4A02EB8001D1F8A4
:1050F000001C41F4807148F68F721140874B03EB1E
:105100008002C2F8001C7047844A02EB8001D1F88B
:10511000001C48F68F621140804B03EB8002C2F8FE
:10512000001C70477D4A02EB8001D1F8001C48F654
:105130008F621140794B03EB8002C2F8001C70476C
:10514000764A02EB8001D1F8001C41F4807148F6E8
:105150008F721140714B03EB8002C2F8001C704744
:105160006E4A02EB8001D1F8001C41F4807148F6D0
:105170008F721140694B03EB8002C2F8001C70472C
:10518000664A02EB8001D1F8001C48F68F6211409C
:10519000624B03EB8002C2F8001C704701465F4A75
:1051A00002EB8100D0F8000C00F03000102801D193
:1051B000012070470020FCE70146584A02EB8100BD
:1051C000D0F8000C00F44050B0F5805F01D1012010
:1051D00070470020FCE7514A02EB8001D1F8001C27
:1051E000C1F30E0148F68F7211404C4B03EB800265
:1051F000C2F8001C7047494A02EB8001D1F8001C3C
:1052000048F60F721140454B03EB8002C2F8001CB8
:105210007047424A02EB8001D1F8001C48F68F72B9
:10522000114041F480413D4B03EB8002C2F8001C69
:1052300070473A4A02EB8001D1F8001C48F68F72A1
:10524000114041F04001354B03EB8002C2F8001CD5
:105250007047324A02EB8001D1F8001C01F4804112
:1052600069B102EB8001D1F8001C48F68F72114041
:1052700041F48041294B03EB8002C2F8001C7047C7
:10528000264A02EB8001D1F8001C01F0400169B10F
:1052900002EB8001D1F8001C48F68F72114041F0FA
:1052A00040011E4B03EB8002C2F8001C704710B592
:1052B0001A4B03EB8002D2F8002C48F68F731A4089
:1052C0000A43164C04EB8003C3F8002C10BD0146C2
:1052D000124A02EB8100D0F8000C00F00F0070477A
:1052E00010B54A1052000C4B10331B689BB203EBF5
:1052F000C0030B4C44F8132010BD10B54A105300E6
:10530000054A1032126892B202EBC002121D044C20
:1053100044F8123010BD0000405C004000500040D6
:10532000006000400146EF48006880B200EBC10019
:10533000ED4A32F8100080B270470146E948006833
:1053400080B200EBC100001DE74A32F8100080B2C5
:105350007047E44A126892B202EBC002921CE24B20
:1053600043F81210704702463E290BDD481101F048
:105370001F030BB9431E98B24FF4004343EA802346
:10538000136007E0481001F001030BB1431C98B211
:1053900083021360704710B50246D248006880B29D
:1053A00000EBC200801DD04C04EB40033E290BDD16
:1053B000481101F01F040CB9441EA0B24FF4004480
:1053C00044EA80241C6007E0481001F001040CB19D
:1053D000441CA0B284021C6010BD0146C148006894
:1053E00080B200EBC100801CBF4A32F81000C0F34D
:1053F000090070470146BB48006880B200EBC1005D
:10540000801DB94A32F81000C0F30900704730B56A
:105410004B105B00B34C2468A4B204EBC004B24D43
:1054200045F8143053105C00AE4B1B689BB203EB85
:10543000C0031B1D45F8134030BD10B54A10520083
:10544000A84B1B689BB203EBC003A74C44F8132086
:1054500010BD10B54A105300A24A126892B202EB76
:10546000C002121DA04C44F8123010BD01469D48E8
:10547000006880B200EBC1009B4A32F8100080B295
:10548000704701469748006880B200EBC100001DDC
:10549000954A32F8100080B2704730B50B46012BA8
:1054A0001FD19049096889B201EBC001891C8E4D5A
:1054B00005EB41043E2A0BDD511102F01F050DB929
:1054C0004D1EA9B24FF4004545EA8125256007E04D
:1054D000511002F001050DB14D1CA9B28D022560DD
:1054E0000AE0022B08D17F49096889B201EBC001AB
:1054F000891C7D4C44F81120012B1FD17949096882
:1055000089B201EBC001891D774D05EB41043E2AAC
:105510000BDD511102F01F050DB94D1EA9B24FF45C
:10552000004545EA8125256007E0511002F001059C
:105530000DB14D1CA9B28D0225600AE0022B08D1E5
:105540006849096889B201EBC001891D664C44F8BD
:10555000112030BD30B5034601291FD161480068D4
:1055600080B200EBC300801C5F4D05EB40043E2A77
:105570000BDD501102F01F050DB9451EA8B24FF406
:10558000004545EA8025256007E0501002F001053E
:105590000DB1451CA8B2850225600AE0022908D198
:1055A0005048006880B200EBC300801C4E4C44F8A9
:1055B000102030BD30B5034601291FD1494800688D
:1055C00080B200EBC300801D474D05EB40043E2A2E
:1055D0000BDD501102F01F050DB9451EA8B24FF4A6
:1055E000004545EA8025256007E0501002F00105DE
:1055F0000DB1451CA8B2850225600AE0022908D138
:105600003848006880B200EBC300801D364C44F877
:10561000102030BD01463348006880B200EBC10065
:10562000801C314A32F81000C0F30900704701466F
:105630002C48006880B200EBC100801D2A4A32F875
:105640001000C0F30900704701462648006880B288
:1056500000EBC100801D244A32F8100000F47C40A9
:1056600008B1012070471F48006880B200EBC100FC
:10567000801C1D4A32F81000C0F3090008B1022056
:10568000F0E70020EEE710B501290FD1174B03EB2F
:105690008002D2F8002C48F68F731A4042F0400284
:1056A000124C04EB8003C3F8002C10E002290ED149
:1056B0000E4B03EB8002D2F8002C48F68F731A4091
:1056C00042F48042094C04EB8003C3F8002C10BD67
:1056D000024641EA022070470146CAB20B1243EA71
:1056E00002207047505C00400060004000500040C5
:1056F00010B50020FCF780FF0121C805FDF729F84F
:1057000010BD03203849086070473848817A19B1C4
:105710000521354A116002E00121334A11607047CA
:1057200008B514208DF8000001208DF8010000203C
:105730008DF8020001208DF803006846FDF765F83A
:1057400008BD7047704710B500212948FDF701F8E2
:1057500000214FF6FD70FCF7EFFF10BD10B5254B93
:1057600018681B1D19681B1D1A68A8B1224CA0706F
:10577000030A2371030CA371030E2372A1720B0A97
:1057800023730B0CA3730B0E2374A274130A2375DB
:10579000130CA375130E237610BD10B5044601211A
:1057A0000420FCF7C9FF3CB11448006880B220F027
:1057B00002001249086016E01048006880B240F00C
:1057C00002000E4908600E48006820F47F200C4952
:1057D00008600846006840F44C30086089140848A6
:1057E000001FFDF768FC10BDDC0A00206C100020D3
:1057F0003FC8FE3AE8F7FF1FE8090020405C004080
:105800000408014010B5402298210A48FFF780FBA8
:105810000120094908704FF44051FFF7F8FB10BD13
:10582000002004E00021054A1154411CC8B2402860
:10583000F8DB70472A0F0020020A002088100020A1
:1058400010B537480068374908800846008800F4DA
:10585000806035490988084030B14FF6FF30304943
:1058600008603249486880472E48008800F400509C
:105870002D490988084018B14DF6FF702849086085
:105880002848008800F4805027490988084030B132
:105890004EF6FF7022490860002000F0BEF9214852
:1058A000008800F4006020490988084060B1204861
:1058B000007810B100F091F902E0022000F0ADF99B
:1058C0004FF2FF70164908601648008800F4007017
:1058D00015490988084040B14FF6FF50104908604B
:1058E00014480078401C134908700E48008800F4E2
:1058F00080700D490988084030B14FF6FF600849B3
:105900000860072000F089F90648008800F400408C
:1059100005490988084008B1FFF7F6F810BD0000F6
:10592000445C0040040A0020DE090020480A0020F0
:10593000E00A0020060A002010B5FFF70FFF002044
:1059400085490968887200F01FF9002083490860C2
:105950004FF43F4082490880084600887F49091F6C
:10596000086000207F49086010BD10B500207A490A
:105970000968887278490968C8727B48C079764995
:10598000096848720020FFF7F5FA4FF40071002013
:10599000FFF70AFB10210020FFF71FFB1821002052
:1059A000FFF7ABFC58210020FFF79AFC0020FFF71F
:1059B000B9FB6E4890F82C100020FFF7ECFC00209B
:1059C000FFF77FFB4FF4C0610120FFF7EDFA98214C
:1059D0000120FFF792FC40210120FFF7DCFC4FF48F
:1059E00040510120FFF713FB4FF4C0610220FFF785
:1059F000DBFA4FF48C710220FFF772FC4021022089
:105A0000FFF7A7FC20210220FFF7E7FA0120554904
:105A100008600020FEF7CEFF10BD4F480068807A76
:105A200010B105204F490860704704204D490860B7
:105A3000704770477047014629B90120464A1268ED
:105A40001082002070474A48FCE710B504464949D7
:105A50002046FEF795FC10BD10B504464649204689
:105A6000FEF78EFC10BD70B504460025062C1AD139
:105A700039480068007800F07F00012813D13648CB
:105A80000068407978B9344800688078222802D1CB
:105A9000AFF23B0512E030480068807821280DD134
:105AA000AFF259050AE02C480068007800F07F004A
:105AB000212803D1032C01D1AFF285050DB90220B5
:105AC00070BD254800688561002123480068418237
:105AD0000020A8470020F3E71F480068C178244849
